{
  "_format": "hh-sol-artifact-1",
  "contractName": "MyNFT1155",
  "sourceName": "api/contracts/MyNFT1155.sol",
  "abi": [
    {
      "inputs": [],
      "stateMutability": "nonpayable",
      "type": "constructor"
    },
    {
      "anonymous": false,
      "inputs": [
        {
          "indexed": true,
          "internalType": "address",
          "name": "account",
          "type": "address"
        },
        {
          "indexed": true,
          "internalType": "address",
          "name": "operator",
          "type": "address"
        },
        {
          "indexed": false,
          "internalType": "bool",
          "name": "approved",
          "type": "bool"
        }
      ],
      "name": "ApprovalForAll",
      "type": "event"
    },
    {
      "anonymous": false,
      "inputs": [
        {
          "indexed": true,
          "internalType": "address",
          "name": "previousOwner",
          "type": "address"
        },
        {
          "indexed": true,
          "internalType": "address",
          "name": "newOwner",
          "type": "address"
        }
      ],
      "name": "OwnershipTransferred",
      "type": "event"
    },
    {
      "anonymous": false,
      "inputs": [
        {
          "indexed": true,
          "internalType": "address",
          "name": "operator",
          "type": "address"
        },
        {
          "indexed": true,
          "internalType": "address",
          "name": "from",
          "type": "address"
        },
        {
          "indexed": true,
          "internalType": "address",
          "name": "to",
          "type": "address"
        },
        {
          "indexed": false,
          "internalType": "uint256[]",
          "name": "ids",
          "type": "uint256[]"
        },
        {
          "indexed": false,
          "internalType": "uint256[]",
          "name": "values",
          "type": "uint256[]"
        }
      ],
      "name": "TransferBatch",
      "type": "event"
    },
    {
      "anonymous": false,
      "inputs": [
        {
          "indexed": true,
          "internalType": "address",
          "name": "operator",
          "type": "address"
        },
        {
          "indexed": true,
          "internalType": "address",
          "name": "from",
          "type": "address"
        },
        {
          "indexed": true,
          "internalType": "address",
          "name": "to",
          "type": "address"
        },
        {
          "indexed": false,
          "internalType": "uint256",
          "name": "id",
          "type": "uint256"
        },
        {
          "indexed": false,
          "internalType": "uint256",
          "name": "value",
          "type": "uint256"
        }
      ],
      "name": "TransferSingle",
      "type": "event"
    },
    {
      "anonymous": false,
      "inputs": [
        {
          "indexed": false,
          "internalType": "string",
          "name": "value",
          "type": "string"
        },
        {
          "indexed": true,
          "internalType": "uint256",
          "name": "id",
          "type": "uint256"
        }
      ],
      "name": "URI",
      "type": "event"
    },
    {
      "inputs": [
        {
          "internalType": "address",
          "name": "account",
          "type": "address"
        },
        {
          "internalType": "uint256",
          "name": "id",
          "type": "uint256"
        }
      ],
      "name": "balanceOf",
      "outputs": [
        {
          "internalType": "uint256",
          "name": "",
          "type": "uint256"
        }
      ],
      "stateMutability": "view",
      "type": "function"
    },
    {
      "inputs": [
        {
          "internalType": "address[]",
          "name": "accounts",
          "type": "address[]"
        },
        {
          "internalType": "uint256[]",
          "name": "ids",
          "type": "uint256[]"
        }
      ],
      "name": "balanceOfBatch",
      "outputs": [
        {
          "internalType": "uint256[]",
          "name": "",
          "type": "uint256[]"
        }
      ],
      "stateMutability": "view",
      "type": "function"
    },
    {
      "inputs": [
        {
          "internalType": "address",
          "name": "account",
          "type": "address"
        },
        {
          "internalType": "address",
          "name": "operator",
          "type": "address"
        }
      ],
      "name": "isApprovedForAll",
      "outputs": [
        {
          "internalType": "bool",
          "name": "",
          "type": "bool"
        }
      ],
      "stateMutability": "view",
      "type": "function"
    },
    {
      "inputs": [
        {
          "internalType": "address",
          "name": "recipient",
          "type": "address"
        },
        {
          "internalType": "string",
          "name": "_tokenURI",
          "type": "string"
        }
      ],
      "name": "mintNFT",
      "outputs": [
        {
          "internalType": "uint256",
          "name": "",
          "type": "uint256"
        }
      ],
      "stateMutability": "nonpayable",
      "type": "function"
    },
    {
      "inputs": [],
      "name": "owner",
      "outputs": [
        {
          "internalType": "address",
          "name": "",
          "type": "address"
        }
      ],
      "stateMutability": "view",
      "type": "function"
    },
    {
      "inputs": [],
      "name": "renounceOwnership",
      "outputs": [],
      "stateMutability": "nonpayable",
      "type": "function"
    },
    {
      "inputs": [
        {
          "internalType": "address",
          "name": "from",
          "type": "address"
        },
        {
          "internalType": "address",
          "name": "to",
          "type": "address"
        },
        {
          "internalType": "uint256[]",
          "name": "ids",
          "type": "uint256[]"
        },
        {
          "internalType": "uint256[]",
          "name": "amounts",
          "type": "uint256[]"
        },
        {
          "internalType": "bytes",
          "name": "data",
          "type": "bytes"
        }
      ],
      "name": "safeBatchTransferFrom",
      "outputs": [],
      "stateMutability": "nonpayable",
      "type": "function"
    },
    {
      "inputs": [
        {
          "internalType": "address",
          "name": "from",
          "type": "address"
        },
        {
          "internalType": "address",
          "name": "to",
          "type": "address"
        },
        {
          "internalType": "uint256",
          "name": "id",
          "type": "uint256"
        },
        {
          "internalType": "uint256",
          "name": "amount",
          "type": "uint256"
        },
        {
          "internalType": "bytes",
          "name": "data",
          "type": "bytes"
        }
      ],
      "name": "safeTransferFrom",
      "outputs": [],
      "stateMutability": "nonpayable",
      "type": "function"
    },
    {
      "inputs": [
        {
          "internalType": "address",
          "name": "operator",
          "type": "address"
        },
        {
          "internalType": "bool",
          "name": "approved",
          "type": "bool"
        }
      ],
      "name": "setApprovalForAll",
      "outputs": [],
      "stateMutability": "nonpayable",
      "type": "function"
    },
    {
      "inputs": [
        {
          "internalType": "bytes4",
          "name": "interfaceId",
          "type": "bytes4"
        }
      ],
      "name": "supportsInterface",
      "outputs": [
        {
          "internalType": "bool",
          "name": "",
          "type": "bool"
        }
      ],
      "stateMutability": "view",
      "type": "function"
    },
    {
      "inputs": [
        {
          "internalType": "address",
          "name": "newOwner",
          "type": "address"
        }
      ],
      "name": "transferOwnership",
      "outputs": [],
      "stateMutability": "nonpayable",
      "type": "function"
    },
    {
      "inputs": [
        {
          "internalType": "uint256",
          "name": "",
          "type": "uint256"
        }
      ],
      "name": "uri",
      "outputs": [
        {
          "internalType": "string",
          "name": "",
          "type": "string"
        }
      ],
      "stateMutability": "view",
      "type": "function"
    }
  ],
  "bytecode": "0x60806040523480156200001157600080fd5b506040518060200160405280600081525062000033816200005a60201b60201c565b5062000054620000486200007660201b60201c565b6200007e60201b60201c565b62000259565b80600290805190602001906200007292919062000144565b5050565b600033905090565b6000600360009054906101000a900473ffffffffffffffffffffffffffffffffffffffff16905081600360006101000a81548173ffffffffffffffffffffffffffffffffffffffff021916908373ffffffffffffffffffffffffffffffffffffffff1602179055508173ffffffffffffffffffffffffffffffffffffffff168173ffffffffffffffffffffffffffffffffffffffff167f8be0079c531659141344cd1fd0a4f28419497f9722a3daafe3b4186f6b6457e060405160405180910390a35050565b8280546200015290620001f4565b90600052602060002090601f016020900481019282620001765760008555620001c2565b82601f106200019157805160ff1916838001178555620001c2565b82800160010185558215620001c2579182015b82811115620001c1578251825591602001919060010190620001a4565b5b509050620001d19190620001d5565b5090565b5b80821115620001f0576000816000905550600101620001d6565b5090565b600060028204905060018216806200020d57607f821691505b602082108114156200022457620002236200022a565b5b50919050565b7f4e487b7100000000000000000000000000000000000000000000000000000000600052602260045260246000fd5b612e4d80620002696000396000f3fe608060405234801561001057600080fd5b50600436106100b35760003560e01c80638da5cb5b116100715780638da5cb5b1461019e578063a22cb465146101bc578063e985e9c5146101d8578063eacabe1414610208578063f242432a14610238578063f2fde38b14610254576100b3565b8062fdd58e146100b857806301ffc9a7146100e85780630e89341c146101185780632eb2c2d6146101485780634e1273f414610164578063715018a614610194575b600080fd5b6100d260048036038101906100cd9190611ea0565b610270565b6040516100df919061257e565b60405180910390f35b61010260048036038101906100fd9190611f48565b610339565b60405161010f91906123c1565b60405180910390f35b610132600480360381019061012d9190611f9a565b61041b565b60405161013f91906123dc565b60405180910390f35b610162600480360381019061015d9190611cc2565b6104af565b005b61017e60048036038101906101799190611edc565b610550565b60405161018b9190612368565b60405180910390f35b61019c610701565b005b6101a6610715565b6040516101b3919061228b565b60405180910390f35b6101d660048036038101906101d19190611e10565b61073f565b005b6101f260048036038101906101ed9190611c86565b610755565b6040516101ff91906123c1565b60405180910390f35b610222600480360381019061021d9190611e4c565b6107e9565b60405161022f919061257e565b60405180910390f35b610252600480360381019061024d9190611d81565b61083b565b005b61026e60048036038101906102699190611c5d565b6108dc565b005b60008073ffffffffffffffffffffffffffffffffffffffff168373ffffffffffffffffffffffffffffffffffffffff1614156102e1576040517f08c379a00000000000000000000000000000000000000000000000000000000081526004016102d89061247e565b60405180910390fd5b60008083815260200190815260200160002060008473ffffffffffffffffffffffffffffffffffffffff1673ffffffffffffffffffffffffffffffffffffffff16815260200190815260200160002054905092915050565b60007fd9b67a26000000000000000000000000000000000000000000000000000000007bffffffffffffffffffffffffffffffffffffffffffffffffffffffff1916827bffffffffffffffffffffffffffffffffffffffffffffffffffffffff1916148061040457507f0e89341c000000000000000000000000000000000000000000000000000000007bffffffffffffffffffffffffffffffffffffffffffffffffffffffff1916827bffffffffffffffffffffffffffffffffffffffffffffffffffffffff1916145b80610414575061041382610960565b5b9050919050565b60606002805461042a9061281e565b80601f01602080910402602001604051908101604052809291908181526020018280546104569061281e565b80156104a35780601f10610478576101008083540402835291602001916104a3565b820191906000526020600020905b81548152906001019060200180831161048657829003601f168201915b50505050509050919050565b6104b76109ca565b73ffffffffffffffffffffffffffffffffffffffff168573ffffffffffffffffffffffffffffffffffffffff1614806104fd57506104fc856104f76109ca565b610755565b5b61053c576040517f08c379a00000000000000000000000000000000000000000000000000000000081526004016105339061241e565b60405180910390fd5b61054985858585856109d2565b5050505050565b60608151835114610596576040517f08c379a000000000000000000000000000000000000000000000000000000000815260040161058d9061251e565b60405180910390fd5b6000835167ffffffffffffffff8111156105d9577f4e487b7100000000000000000000000000000000000000000000000000000000600052604160045260246000fd5b6040519080825280602002602001820160405280156106075781602001602082028036833780820191505090505b50905060005b84518110156106f6576106a0858281518110610652577f4e487b7100000000000000000000000000000000000000000000000000000000600052603260045260246000fd5b6020026020010151858381518110610693577f4e487b7100000000000000000000000000000000000000000000000000000000600052603260045260246000fd5b6020026020010151610270565b8282815181106106d9577f4e487b7100000000000000000000000000000000000000000000000000000000600052603260045260246000fd5b602002602001018181525050806106ef90612881565b905061060d565b508091505092915050565b610709610d40565b6107136000610dbe565b565b6000600360009054906101000a900473ffffffffffffffffffffffffffffffffffffffff16905090565b61075161074a6109ca565b8383610e84565b5050565b6000600160008473ffffffffffffffffffffffffffffffffffffffff1673ffffffffffffffffffffffffffffffffffffffff16815260200190815260200160002060008373ffffffffffffffffffffffffffffffffffffffff1673ffffffffffffffffffffffffffffffffffffffff16815260200190815260200160002060009054906101000a900460ff16905092915050565b60006107f3610d40565b6107fd6004610ff1565b60006108096004611007565b90506108278482600160405180602001604052806000815250611015565b61083181846111c6565b8091505092915050565b6108436109ca565b73ffffffffffffffffffffffffffffffffffffffff168573ffffffffffffffffffffffffffffffffffffffff1614806108895750610888856108836109ca565b610755565b5b6108c8576040517f08c379a00000000000000000000000000000000000000000000000000000000081526004016108bf9061241e565b60405180910390fd5b6108d585858585856111f2565b5050505050565b6108e4610d40565b600073ffffffffffffffffffffffffffffffffffffffff168173ffffffffffffffffffffffffffffffffffffffff161415610954576040517f08c379a000000000000000000000000000000000000000000000000000000000815260040161094b9061245e565b60405180910390fd5b61095d81610dbe565b50565b60007f01ffc9a7000000000000000000000000000000000000000000000000000000007bffffffffffffffffffffffffffffffffffffffffffffffffffffffff1916827bffffffffffffffffffffffffffffffffffffffffffffffffffffffff1916149050919050565b600033905090565b8151835114610a16576040517f08c379a0000000000000000000000000000000000000000000000000000000008152600401610a0d9061253e565b60405180910390fd5b600073ffffffffffffffffffffffffffffffffffffffff168473ffffffffffffffffffffffffffffffffffffffff161415610a86576040517f08c379a0000000000000000000000000000000000000000000000000000000008152600401610a7d9061249e565b60405180910390fd5b6000610a906109ca565b9050610aa081878787878761148e565b60005b8451811015610c9d576000858281518110610ae7577f4e487b7100000000000000000000000000000000000000000000000000000000600052603260045260246000fd5b602002602001015190506000858381518110610b2c577f4e487b7100000000000000000000000000000000000000000000000000000000600052603260045260246000fd5b60200260200101519050600080600084815260200190815260200160002060008b73ffffffffffffffffffffffffffffffffffffffff1673ffffffffffffffffffffffffffffffffffffffff16815260200190815260200160002054905081811015610bcd576040517f08c379a0000000000000000000000000000000000000000000000000000000008152600401610bc4906124be565b60405180910390fd5b81810360008085815260200190815260200160002060008c73ffffffffffffffffffffffffffffffffffffffff1673ffffffffffffffffffffffffffffffffffffffff168152602001908152602001600020819055508160008085815260200190815260200160002060008b73ffffffffffffffffffffffffffffffffffffffff1673ffffffffffffffffffffffffffffffffffffffff1681526020019081526020016000206000828254610c829190612712565b9250508190555050505080610c9690612881565b9050610aa3565b508473ffffffffffffffffffffffffffffffffffffffff168673ffffffffffffffffffffffffffffffffffffffff168273ffffffffffffffffffffffffffffffffffffffff167f4a39dc06d4c0dbc64b70af90fd698a233a518aa5d07e595d983b8c0526c8f7fb8787604051610d1492919061238a565b60405180910390a4610d2a818787878787611496565b610d3881878787878761149e565b505050505050565b610d486109ca565b73ffffffffffffffffffffffffffffffffffffffff16610d66610715565b73ffffffffffffffffffffffffffffffffffffffff1614610dbc576040517f08c379a0000000000000000000000000000000000000000000000000000000008152600401610db3906124de565b60405180910390fd5b565b6000600360009054906101000a900473ffffffffffffffffffffffffffffffffffffffff16905081600360006101000a81548173ffffffffffffffffffffffffffffffffffffffff021916908373ffffffffffffffffffffffffffffffffffffffff1602179055508173ffffffffffffffffffffffffffffffffffffffff168173ffffffffffffffffffffffffffffffffffffffff167f8be0079c531659141344cd1fd0a4f28419497f9722a3daafe3b4186f6b6457e060405160405180910390a35050565b8173ffffffffffffffffffffffffffffffffffffffff168373ffffffffffffffffffffffffffffffffffffffff161415610ef3576040517f08c379a0000000000000000000000000000000000000000000000000000000008152600401610eea906124fe565b60405180910390fd5b80600160008573ffffffffffffffffffffffffffffffffffffffff1673ffffffffffffffffffffffffffffffffffffffff16815260200190815260200160002060008473ffffffffffffffffffffffffffffffffffffffff1673ffffffffffffffffffffffffffffffffffffffff16815260200190815260200160002060006101000a81548160ff0219169083151502179055508173ffffffffffffffffffffffffffffffffffffffff168373ffffffffffffffffffffffffffffffffffffffff167f17307eab39ab6107e8899845ad3d59bd9653f200f220920489ca2b5937696c3183604051610fe491906123c1565b60405180910390a3505050565b6001816000016000828254019250508190555050565b600081600001549050919050565b600073ffffffffffffffffffffffffffffffffffffffff168473ffffffffffffffffffffffffffffffffffffffff161415611085576040517f08c379a000000000000000000000000000000000000000000000000000000000815260040161107c9061255e565b60405180910390fd5b600061108f6109ca565b9050600061109c85611685565b905060006110a985611685565b90506110ba8360008985858961148e565b8460008088815260200190815260200160002060008973ffffffffffffffffffffffffffffffffffffffff1673ffffffffffffffffffffffffffffffffffffffff16815260200190815260200160002060008282546111199190612712565b925050819055508673ffffffffffffffffffffffffffffffffffffffff16600073ffffffffffffffffffffffffffffffffffffffff168473ffffffffffffffffffffffffffffffffffffffff167fc3d58168c5ae7397731d063d5bbf3d657854427343f4c083240f7aacaa2d0f628989604051611197929190612599565b60405180910390a46111ae83600089858589611496565b6111bd8360008989898961174b565b50505050505050565b806005600084815260200190815260200160002090805190602001906111ed929190611955565b505050565b600073ffffffffffffffffffffffffffffffffffffffff168473ffffffffffffffffffffffffffffffffffffffff161415611262576040517f08c379a00000000000000000000000000000000000000000000000000000000081526004016112599061249e565b60405180910390fd5b600061126c6109ca565b9050600061127985611685565b9050600061128685611685565b905061129683898985858961148e565b600080600088815260200190815260200160002060008a73ffffffffffffffffffffffffffffffffffffffff1673ffffffffffffffffffffffffffffffffffffffff1681526020019081526020016000205490508581101561132d576040517f08c379a0000000000000000000000000000000000000000000000000000000008152600401611324906124be565b60405180910390fd5b85810360008089815260200190815260200160002060008b73ffffffffffffffffffffffffffffffffffffffff1673ffffffffffffffffffffffffffffffffffffffff168152602001908152602001600020819055508560008089815260200190815260200160002060008a73ffffffffffffffffffffffffffffffffffffffff1673ffffffffffffffffffffffffffffffffffffffff16815260200190815260200160002060008282546113e29190612712565b925050819055508773ffffffffffffffffffffffffffffffffffffffff168973ffffffffffffffffffffffffffffffffffffffff168573ffffffffffffffffffffffffffffffffffffffff167fc3d58168c5ae7397731d063d5bbf3d657854427343f4c083240f7aacaa2d0f628a8a60405161145f929190612599565b60405180910390a4611475848a8a86868a611496565b611483848a8a8a8a8a61174b565b505050505050505050565b505050505050565b505050505050565b6114bd8473ffffffffffffffffffffffffffffffffffffffff16611932565b1561167d578373ffffffffffffffffffffffffffffffffffffffff1663bc197c8187878686866040518663ffffffff1660e01b81526004016115039594939291906122a6565b602060405180830381600087803b15801561151d57600080fd5b505af192505050801561154e57506040513d601f19601f8201168201806040525081019061154b9190611f71565b60015b6115f45761155a612957565b806308c379a014156115b7575061156f612d25565b8061157a57506115b9565b806040517f08c379a00000000000000000000000000000000000000000000000000000000081526004016115ae91906123dc565b60405180910390fd5b505b6040517f08c379a00000000000000000000000000000000000000000000000000000000081526004016115eb906123fe565b60405180910390fd5b63bc197c8160e01b7bffffffffffffffffffffffffffffffffffffffffffffffffffffffff1916817bffffffffffffffffffffffffffffffffffffffffffffffffffffffff19161461167b576040517f08c379a00000000000000000000000000000000000000000000000000000000081526004016116729061243e565b60405180910390fd5b505b505050505050565b60606000600167ffffffffffffffff8111156116ca577f4e487b7100000000000000000000000000000000000000000000000000000000600052604160045260246000fd5b6040519080825280602002602001820160405280156116f85781602001602082028036833780820191505090505b5090508281600081518110611736577f4e487b7100000000000000000000000000000000000000000000000000000000600052603260045260246000fd5b60200260200101818152505080915050919050565b61176a8473ffffffffffffffffffffffffffffffffffffffff16611932565b1561192a578373ffffffffffffffffffffffffffffffffffffffff1663f23a6e6187878686866040518663ffffffff1660e01b81526004016117b095949392919061230e565b602060405180830381600087803b1580156117ca57600080fd5b505af19250505080156117fb57506040513d601f19601f820116820180604052508101906117f89190611f71565b60015b6118a157611807612957565b806308c379a01415611864575061181c612d25565b806118275750611866565b806040517f08c379a000000000000000000000000000000000000000000000000000000000815260040161185b91906123dc565b60405180910390fd5b505b6040517f08c379a0000000000000000000000000000000000000000000000000000000008152600401611898906123fe565b60405180910390fd5b63f23a6e6160e01b7bffffffffffffffffffffffffffffffffffffffffffffffffffffffff1916817bffffffffffffffffffffffffffffffffffffffffffffffffffffffff191614611928576040517f08c379a000000000000000000000000000000000000000000000000000000000815260040161191f9061243e565b60405180910390fd5b505b505050505050565b6000808273ffffffffffffffffffffffffffffffffffffffff163b119050919050565b8280546119619061281e565b90600052602060002090601f01602090048101928261198357600085556119ca565b82601f1061199c57805160ff19168380011785556119ca565b828001600101855582156119ca579182015b828111156119c95782518255916020019190600101906119ae565b5b5090506119d791906119db565b5090565b5b808211156119f45760008160009055506001016119dc565b5090565b6000611a0b611a06846125e7565b6125c2565b90508083825260208201905082856020860282011115611a2a57600080fd5b60005b85811015611a5a5781611a408882611b4c565b845260208401935060208301925050600181019050611a2d565b5050509392505050565b6000611a77611a7284612613565b6125c2565b90508083825260208201905082856020860282011115611a9657600080fd5b60005b85811015611ac65781611aac8882611c48565b845260208401935060208301925050600181019050611a99565b5050509392505050565b6000611ae3611ade8461263f565b6125c2565b905082815260208101848484011115611afb57600080fd5b611b068482856127dc565b509392505050565b6000611b21611b1c84612670565b6125c2565b905082815260208101848484011115611b3957600080fd5b611b448482856127dc565b509392505050565b600081359050611b5b81612dbb565b92915050565b600082601f830112611b7257600080fd5b8135611b828482602086016119f8565b91505092915050565b600082601f830112611b9c57600080fd5b8135611bac848260208601611a64565b91505092915050565b600081359050611bc481612dd2565b92915050565b600081359050611bd981612de9565b92915050565b600081519050611bee81612de9565b92915050565b600082601f830112611c0557600080fd5b8135611c15848260208601611ad0565b91505092915050565b600082601f830112611c2f57600080fd5b8135611c3f848260208601611b0e565b91505092915050565b600081359050611c5781612e00565b92915050565b600060208284031215611c6f57600080fd5b6000611c7d84828501611b4c565b91505092915050565b60008060408385031215611c9957600080fd5b6000611ca785828601611b4c565b9250506020611cb885828601611b4c565b9150509250929050565b600080600080600060a08688031215611cda57600080fd5b6000611ce888828901611b4c565b9550506020611cf988828901611b4c565b945050604086013567ffffffffffffffff811115611d1657600080fd5b611d2288828901611b8b565b935050606086013567ffffffffffffffff811115611d3f57600080fd5b611d4b88828901611b8b565b925050608086013567ffffffffffffffff811115611d6857600080fd5b611d7488828901611bf4565b9150509295509295909350565b600080600080600060a08688031215611d9957600080fd5b6000611da788828901611b4c565b9550506020611db888828901611b4c565b9450506040611dc988828901611c48565b9350506060611dda88828901611c48565b925050608086013567ffffffffffffffff811115611df757600080fd5b611e0388828901611bf4565b9150509295509295909350565b60008060408385031215611e2357600080fd5b6000611e3185828601611b4c565b9250506020611e4285828601611bb5565b9150509250929050565b60008060408385031215611e5f57600080fd5b6000611e6d85828601611b4c565b925050602083013567ffffffffffffffff811115611e8a57600080fd5b611e9685828601611c1e565b9150509250929050565b60008060408385031215611eb357600080fd5b6000611ec185828601611b4c565b9250506020611ed285828601611c48565b9150509250929050565b60008060408385031215611eef57600080fd5b600083013567ffffffffffffffff811115611f0957600080fd5b611f1585828601611b61565b925050602083013567ffffffffffffffff811115611f3257600080fd5b611f3e85828601611b8b565b9150509250929050565b600060208284031215611f5a57600080fd5b6000611f6884828501611bca565b91505092915050565b600060208284031215611f8357600080fd5b6000611f9184828501611bdf565b91505092915050565b600060208284031215611fac57600080fd5b6000611fba84828501611c48565b91505092915050565b6000611fcf838361226d565b60208301905092915050565b611fe481612768565b82525050565b6000611ff5826126b1565b611fff81856126df565b935061200a836126a1565b8060005b8381101561203b5781516120228882611fc3565b975061202d836126d2565b92505060018101905061200e565b5085935050505092915050565b6120518161277a565b82525050565b6000612062826126bc565b61206c81856126f0565b935061207c8185602086016127eb565b61208581612979565b840191505092915050565b600061209b826126c7565b6120a58185612701565b93506120b58185602086016127eb565b6120be81612979565b840191505092915050565b60006120d6603483612701565b91506120e182612997565b604082019050919050565b60006120f9602f83612701565b9150612104826129e6565b604082019050919050565b600061211c602883612701565b915061212782612a35565b604082019050919050565b600061213f602683612701565b915061214a82612a84565b604082019050919050565b6000612162602a83612701565b915061216d82612ad3565b604082019050919050565b6000612185602583612701565b915061219082612b22565b604082019050919050565b60006121a8602a83612701565b91506121b382612b71565b604082019050919050565b60006121cb602083612701565b91506121d682612bc0565b602082019050919050565b60006121ee602983612701565b91506121f982612be9565b604082019050919050565b6000612211602983612701565b915061221c82612c38565b604082019050919050565b6000612234602883612701565b915061223f82612c87565b604082019050919050565b6000612257602183612701565b915061226282612cd6565b604082019050919050565b612276816127d2565b82525050565b612285816127d2565b82525050565b60006020820190506122a06000830184611fdb565b92915050565b600060a0820190506122bb6000830188611fdb565b6122c86020830187611fdb565b81810360408301526122da8186611fea565b905081810360608301526122ee8185611fea565b905081810360808301526123028184612057565b90509695505050505050565b600060a0820190506123236000830188611fdb565b6123306020830187611fdb565b61233d604083018661227c565b61234a606083018561227c565b818103608083015261235c8184612057565b90509695505050505050565b600060208201905081810360008301526123828184611fea565b905092915050565b600060408201905081810360008301526123a48185611fea565b905081810360208301526123b88184611fea565b90509392505050565b60006020820190506123d66000830184612048565b92915050565b600060208201905081810360008301526123f68184612090565b905092915050565b60006020820190508181036000830152612417816120c9565b9050919050565b60006020820190508181036000830152612437816120ec565b9050919050565b600060208201905081810360008301526124578161210f565b9050919050565b6000602082019050818103600083015261247781612132565b9050919050565b6000602082019050818103600083015261249781612155565b9050919050565b600060208201905081810360008301526124b781612178565b9050919050565b600060208201905081810360008301526124d78161219b565b9050919050565b600060208201905081810360008301526124f7816121be565b9050919050565b60006020820190508181036000830152612517816121e1565b9050919050565b6000602082019050818103600083015261253781612204565b9050919050565b6000602082019050818103600083015261255781612227565b9050919050565b600060208201905081810360008301526125778161224a565b9050919050565b6000602082019050612593600083018461227c565b92915050565b60006040820190506125ae600083018561227c565b6125bb602083018461227c565b9392505050565b60006125cc6125dd565b90506125d88282612850565b919050565b6000604051905090565b600067ffffffffffffffff82111561260257612601612928565b5b602082029050602081019050919050565b600067ffffffffffffffff82111561262e5761262d612928565b5b602082029050602081019050919050565b600067ffffffffffffffff82111561265a57612659612928565b5b61266382612979565b9050602081019050919050565b600067ffffffffffffffff82111561268b5761268a612928565b5b61269482612979565b9050602081019050919050565b6000819050602082019050919050565b600081519050919050565b600081519050919050565b600081519050919050565b6000602082019050919050565b600082825260208201905092915050565b600082825260208201905092915050565b600082825260208201905092915050565b600061271d826127d2565b9150612728836127d2565b9250827fffffffffffffffffffffffffffffffffffffffffffffffffffffffffffffffff0382111561275d5761275c6128ca565b5b828201905092915050565b6000612773826127b2565b9050919050565b60008115159050919050565b60007fffffffff0000000000000000000000000000000000000000000000000000000082169050919050565b600073ffffffffffffffffffffffffffffffffffffffff82169050919050565b6000819050919050565b82818337600083830152505050565b60005b838110156128095780820151818401526020810190506127ee565b83811115612818576000848401525b50505050565b6000600282049050600182168061283657607f821691505b6020821081141561284a576128496128f9565b5b50919050565b61285982612979565b810181811067ffffffffffffffff8211171561287857612877612928565b5b80604052505050565b600061288c826127d2565b91507fffffffffffffffffffffffffffffffffffffffffffffffffffffffffffffffff8214156128bf576128be6128ca565b5b600182019050919050565b7f4e487b7100000000000000000000000000000000000000000000000000000000600052601160045260246000fd5b7f4e487b7100000000000000000000000000000000000000000000000000000000600052602260045260246000fd5b7f4e487b7100000000000000000000000000000000000000000000000000000000600052604160045260246000fd5b600060033d11156129765760046000803e61297360005161298a565b90505b90565b6000601f19601f8301169050919050565b60008160e01c9050919050565b7f455243313135353a207472616e7366657220746f206e6f6e204552433131353560008201527f526563656976657220696d706c656d656e746572000000000000000000000000602082015250565b7f455243313135353a2063616c6c6572206973206e6f7420746f6b656e206f776e60008201527f6572206e6f7220617070726f7665640000000000000000000000000000000000602082015250565b7f455243313135353a204552433131353552656365697665722072656a6563746560008201527f6420746f6b656e73000000000000000000000000000000000000000000000000602082015250565b7f4f776e61626c653a206e6577206f776e657220697320746865207a65726f206160008201527f6464726573730000000000000000000000000000000000000000000000000000602082015250565b7f455243313135353a2061646472657373207a65726f206973206e6f742061207660008201527f616c6964206f776e657200000000000000000000000000000000000000000000602082015250565b7f455243313135353a207472616e7366657220746f20746865207a65726f20616460008201527f6472657373000000000000000000000000000000000000000000000000000000602082015250565b7f455243313135353a20696e73756666696369656e742062616c616e636520666f60008201527f72207472616e7366657200000000000000000000000000000000000000000000602082015250565b7f4f776e61626c653a2063616c6c6572206973206e6f7420746865206f776e6572600082015250565b7f455243313135353a2073657474696e6720617070726f76616c2073746174757360008201527f20666f722073656c660000000000000000000000000000000000000000000000602082015250565b7f455243313135353a206163636f756e747320616e6420696473206c656e67746860008201527f206d69736d617463680000000000000000000000000000000000000000000000602082015250565b7f455243313135353a2069647320616e6420616d6f756e7473206c656e6774682060008201527f6d69736d61746368000000000000000000000000000000000000000000000000602082015250565b7f455243313135353a206d696e7420746f20746865207a65726f2061646472657360008201527f7300000000000000000000000000000000000000000000000000000000000000602082015250565b600060443d1015612d3557612db8565b612d3d6125dd565b60043d036004823e80513d602482011167ffffffffffffffff82111715612d65575050612db8565b808201805167ffffffffffffffff811115612d835750505050612db8565b80602083010160043d038501811115612da0575050505050612db8565b612daf82602001850186612850565b82955050505050505b90565b612dc481612768565b8114612dcf57600080fd5b50565b612ddb8161277a565b8114612de657600080fd5b50565b612df281612786565b8114612dfd57600080fd5b50565b612e09816127d2565b8114612e1457600080fd5b5056fea264697066735822122043670211b27bbd0f2ddf0b71bf720f01962cf248874d2b3ab6d2559a8254f69764736f6c63430008040033",
  "linkReferences": {},
  "deployedLinkReferences": {}
}